{
	"test2.sol": {
		"CallMeChallenge": {
			"abi": [
				{
					"constant": false,
					"inputs": [],
					"name": "callme",
					"outputs": [],
					"payable": false,
					"stateMutability": "nonpayable",
					"type": "function"
				},
				{
					"constant": true,
					"inputs": [],
					"name": "isComplete",
					"outputs": [
						{
							"name": "",
							"type": "bool"
						}
					],
					"payable": false,
					"stateMutability": "view",
					"type": "function"
				}
			],
			"devdoc": {
				"methods": {}
			},
			"evm": {
				"assembly": "    /* \"test2.sol\":28:163  contract CallMeChallenge {\r... */\n  mstore(0x40, 0x80)\n    /* \"test2.sol\":85:90  false */\n  0x0\n    /* \"test2.sol\":60:90  bool public isComplete = false */\n  dup1\n  exp(0x100, 0x0)\n  dup2\n  sload\n  dup2\n  0xff\n  mul\n  not\n  and\n  swap1\n  dup4\n  iszero\n  iszero\n  mul\n  or\n  swap1\n  sstore\n  pop\n    /* \"test2.sol\":28:163  contract CallMeChallenge {\r... */\n  callvalue\n    /* \"--CODEGEN--\":8:17   */\n  dup1\n    /* \"--CODEGEN--\":5:7   */\n  iszero\n  tag_1\n  jumpi\n    /* \"--CODEGEN--\":30:31   */\n  0x0\n    /* \"--CODEGEN--\":27:28   */\n  dup1\n    /* \"--CODEGEN--\":20:32   */\n  revert\n    /* \"--CODEGEN--\":5:7   */\ntag_1:\n    /* \"test2.sol\":28:163  contract CallMeChallenge {\r... */\n  pop\n  dataSize(sub_0)\n  dup1\n  dataOffset(sub_0)\n  0x0\n  codecopy\n  0x0\n  return\nstop\n\nsub_0: assembly {\n        /* \"test2.sol\":28:163  contract CallMeChallenge {\r... */\n      mstore(0x40, 0x80)\n      jumpi(tag_1, lt(calldatasize, 0x4))\n      calldataload(0x0)\n      0x100000000000000000000000000000000000000000000000000000000\n      swap1\n      div\n      0xffffffff\n      and\n      dup1\n      0xa3c8e393\n      eq\n      tag_2\n      jumpi\n      dup1\n      0xb2fa1c9e\n      eq\n      tag_3\n      jumpi\n    tag_1:\n      0x0\n      dup1\n      revert\n        /* \"test2.sol\":99:160  function callme() public {\r... */\n    tag_2:\n      callvalue\n        /* \"--CODEGEN--\":8:17   */\n      dup1\n        /* \"--CODEGEN--\":5:7   */\n      iszero\n      tag_4\n      jumpi\n        /* \"--CODEGEN--\":30:31   */\n      0x0\n        /* \"--CODEGEN--\":27:28   */\n      dup1\n        /* \"--CODEGEN--\":20:32   */\n      revert\n        /* \"--CODEGEN--\":5:7   */\n    tag_4:\n        /* \"test2.sol\":99:160  function callme() public {\r... */\n      pop\n      tag_5\n      jump(tag_6)\n    tag_5:\n      stop\n        /* \"test2.sol\":60:90  bool public isComplete = false */\n    tag_3:\n      callvalue\n        /* \"--CODEGEN--\":8:17   */\n      dup1\n        /* \"--CODEGEN--\":5:7   */\n      iszero\n      tag_7\n      jumpi\n        /* \"--CODEGEN--\":30:31   */\n      0x0\n        /* \"--CODEGEN--\":27:28   */\n      dup1\n        /* \"--CODEGEN--\":20:32   */\n      revert\n        /* \"--CODEGEN--\":5:7   */\n    tag_7:\n        /* \"test2.sol\":60:90  bool public isComplete = false */\n      pop\n      tag_8\n      jump(tag_9)\n    tag_8:\n      mload(0x40)\n      dup1\n      dup3\n      iszero\n      iszero\n      iszero\n      iszero\n      dup2\n      mstore\n      0x20\n      add\n      swap2\n      pop\n      pop\n      mload(0x40)\n      dup1\n      swap2\n      sub\n      swap1\n      return\n        /* \"test2.sol\":99:160  function callme() public {\r... */\n    tag_6:\n        /* \"test2.sol\":148:152  true */\n      0x1\n        /* \"test2.sol\":135:145  isComplete */\n      0x0\n      dup1\n        /* \"test2.sol\":135:152  isComplete = true */\n      0x100\n      exp\n      dup2\n      sload\n      dup2\n      0xff\n      mul\n      not\n      and\n      swap1\n      dup4\n      iszero\n      iszero\n      mul\n      or\n      swap1\n      sstore\n      pop\n        /* \"test2.sol\":99:160  function callme() public {\r... */\n      jump\t// out\n        /* \"test2.sol\":60:90  bool public isComplete = false */\n    tag_9:\n      0x0\n      dup1\n      swap1\n      sload\n      swap1\n      0x100\n      exp\n      swap1\n      div\n      0xff\n      and\n      dup2\n      jump\t// out\n\n    auxdata: 0xa165627a7a723058205c80736c75a7522b6223b092a2a8d673f28d67afea56e7b39daf94a247a45eba0029\n}\n",
				"bytecode": {
					"linkReferences": {},
					"object": "608060405260008060006101000a81548160ff02191690831515021790555034801561002a57600080fd5b5060e8806100396000396000f3006080604052600436106049576000357c0100000000000000000000000000000000000000000000000000000000900463ffffffff168063a3c8e39314604e578063b2fa1c9e146062575b600080fd5b348015605957600080fd5b506060608e565b005b348015606d57600080fd5b50607460aa565b604051808215151515815260200191505060405180910390f35b60016000806101000a81548160ff021916908315150217905550565b6000809054906101000a900460ff16815600a165627a7a723058205c80736c75a7522b6223b092a2a8d673f28d67afea56e7b39daf94a247a45eba0029",
					"opcodes": "PUSH1 0x80 PUSH1 0x40 MSTORE PUSH1 0x0 DUP1 PUSH1 0x0 PUSH2 0x100 EXP DUP2 SLOAD DUP2 PUSH1 0xFF MUL NOT AND SWAP1 DUP4 ISZERO ISZERO MUL OR SWAP1 SSTORE POP CALLVALUE DUP1 ISZERO PUSH2 0x2A JUMPI PUSH1 0x0 DUP1 REVERT JUMPDEST POP PUSH1 0xE8 DUP1 PUSH2 0x39 PUSH1 0x0 CODECOPY PUSH1 0x0 RETURN STOP PUSH1 0x80 PUSH1 0x40 MSTORE PUSH1 0x4 CALLDATASIZE LT PUSH1 0x49 JUMPI PUSH1 0x0 CALLDATALOAD PUSH29 0x100000000000000000000000000000000000000000000000000000000 SWAP1 DIV PUSH4 0xFFFFFFFF AND DUP1 PUSH4 0xA3C8E393 EQ PUSH1 0x4E JUMPI DUP1 PUSH4 0xB2FA1C9E EQ PUSH1 0x62 JUMPI JUMPDEST PUSH1 0x0 DUP1 REVERT JUMPDEST CALLVALUE DUP1 ISZERO PUSH1 0x59 JUMPI PUSH1 0x0 DUP1 REVERT JUMPDEST POP PUSH1 0x60 PUSH1 0x8E JUMP JUMPDEST STOP JUMPDEST CALLVALUE DUP1 ISZERO PUSH1 0x6D JUMPI PUSH1 0x0 DUP1 REVERT JUMPDEST POP PUSH1 0x74 PUSH1 0xAA JUMP JUMPDEST PUSH1 0x40 MLOAD DUP1 DUP3 ISZERO ISZERO ISZERO ISZERO DUP2 MSTORE PUSH1 0x20 ADD SWAP2 POP POP PUSH1 0x40 MLOAD DUP1 SWAP2 SUB SWAP1 RETURN JUMPDEST PUSH1 0x1 PUSH1 0x0 DUP1 PUSH2 0x100 EXP DUP2 SLOAD DUP2 PUSH1 0xFF MUL NOT AND SWAP1 DUP4 ISZERO ISZERO MUL OR SWAP1 SSTORE POP JUMP JUMPDEST PUSH1 0x0 DUP1 SWAP1 SLOAD SWAP1 PUSH2 0x100 EXP SWAP1 DIV PUSH1 0xFF AND DUP2 JUMP STOP LOG1 PUSH6 0x627A7A723058 KECCAK256 0x5c DUP1 PUSH20 0x6C75A7522B6223B092A2A8D673F28D67AFEA56E7 0xb3 SWAP14 0xaf SWAP5 LOG2 0x47 LOG4 0x5e 0xba STOP 0x29 "
				},
				"gasEstimates": {
					"creation": {
						"codeDepositCost": "46400",
						"executionCost": "20366",
						"totalCost": "66766"
					},
					"external": {
						"callme()": "20400",
						"isComplete()": "464"
					}
				},
				"methodIdentifiers": {
					"callme()": "a3c8e393",
					"isComplete()": "b2fa1c9e"
				}
			},
			"userdoc": {
				"methods": {}
			}
		}
	}
}